S00F000062696E2F6D61696E2E733139D8
S3150800000000400020FD2B0008E32B0008F72B000812
S31508000010E32B0008E32B0008E32B00080000000090
S31508000020000000000000000000000000E32B0008AC
S31508000030E32B000800000000E32B0008812E0008CF
S31508000040E32B0008E32B0008E32B0008E32B00084A
S31508000050E32B0008E32B0008E32B0008E32B00083A
S31508000060E32B0008E32B0008E32B0008E32B00082A
S31508000070E32B0008E32B0008E32B0008E32B00081A
S31508000080E32B0008E32B0008E32B0008E32B00080A
S31508000090E32B0008E32B0008E32B0008990E000861
S315080000A0E32B0008E32B0008E32B0008E32B0008EA
S315080000B0E32B0008D51A00088D160008E32B000864
S315080000C0E32B0008E32B0008E32B0008E32B0008CA
S315080000D0E32B00089D0F0008E32B0008E32B00081C
S315080000E0AD0E0008E32B0008E32B0008E32B0008FD
S315080000F0E32B0008E32B0008E32B0008E32B00089A
S31508000100000000000000000000000000E32B0008CB
S31508000110E32B0008E32B0008E32B0008E32B000879
S31508000120E32B0008E32B0008E32B0008E32B000869
S31508000130E32B0008E32B0008000000000000000085
S31508000140E32B0008E32B0008E32B0008000000005F
S315080001500000000000000000000000000000000091
S315080001600000000000000000E32B0008E32B000855
S31508000170E32B00080000000000000000000000005B
S30D0800018000000000E32B000853
S3150800018810B5044600F00EFE002803DAA0F51C5048
S31508000198103810BD204600F0A1FE002803DAA0F5A5
S315080001A89C40203810BD0E4801F0C6FC002803DA2A
S315080001B8A0F5EA40303810BD204601F093F900282A
S315080001C803DAA0F51C40403810BD04F1C40000F05D
S315080001D8B1FC0028BCBFA0F54340503810BD00BF8D
S315080001E87801002070B5054600242846FFF7C8FFA1
S315080001F806460A4928462246334600F0AFFF2846EF
S315080002081EB9074900F0AAFF05E00649013400F0BF
S31508000218A5FF082CE9D1304670BD00BF802F00081D
S31508000228952F00089C2F000810B50821044600F0F1
S3150800023819FE04F1C400BDE8104000F0DFBB10B594
S3150800024808210446C43400F0FFFD002120460A466A
S3150800025800F06AFC204601210022BDE8104000F0A3
S3150800026863BCC0F8CC1070472DE9F74F00F1840736
S315080002788146384688469A46934601F0E9FC384648
S3150800028801F00AFE83680025984421480A2101F0EE
S31508000298ABFC09F1C406BAF1000F11D1384601F0D2
S315080002A8D7FC384601F0F8FD8468C4EB0804002C2E
S315080002B8CCBF01234FF0FF335D4515DA013513E04E
S315080002C8D0470028EAD0002130460A4600F02CFC20
S315080002D830460121002200F027FC0D48142103B0FE
S315080002E8BDE8F04F01F080BC03FB05F2304600215B
S315080002F8019300F019FC019B6A42304601215A43D2
S3150800030800F012FC002CB8BF6442312CBDDCDAE7D9
S31508000318780100207047704710B54C1E14F8011F65
S3150800032819B1024800F05AFEF8E710BD3800002057
S3150800033830B585B000238DF80F300A220A2301ACA0
S31508000348B1FBF3F503FB1513303313552946531E32
S315080003580DB11A46F2E7A118FFF7DEFF05B030BD62
S31508000368F8B515481D460E46174601F02FFC0544F4
S31508000378124800F0A1FD0024104800F03BFE4FF695
S31508000388FF7398420DD0335D984209D17B1E9C4273
S3150800039801D2013405E0094800F08EFD0120F8BDB8
S315080003A80024054801F012FCA842E5D3034800F0EA
S315080003B883FD0020F8BD00BF780100203800002022
S315080003C810B50023044640F6B8310360224801F008
S315080003D80BFC2379012B0CBF204921492046FFF73E
S315080003E89BFF1D484FF47A7101F0FEFB20461D4914
S315080003F8FFF792FF18484FF47A7101F0F5FB20468B
S315080004081949FFF789FF20461849FFF785FF20464F
S315080004181749FFF781FF20461649FFF77DFF204653
S315080004281549FFF779FF20461449022244F6206346
S31508000438FFF796FF58B12379012B0BD120461049AF
S31508000448FFF76AFF0448C82101F0CEFB02E06FF007
S31508000458010010BD002010BD78010020A82F000853
S31508000468B62F0008C42F0008D22F0008DD2F000871
S315080004782C300008E72F0008F62F00084E30000831
S31508000488FA2F000810B564220446017109480221AA
S3150800049801F0EEF82046FFF793FF044605481CB915
S315080004A802214FF4967201E00321082201F0E0F8D0
S315080004B8204610BD48010020F8B517461D460C46CB
S315080004C80A46CB199A4203D0002102F8011BF9E71C
S315080004D8154801F07BFB461944B92946124801F02C
S315080004E883FB124800F0E8FC2046F8BD00250F48B3
S315080004F800F080FD4FF6FF7398421CBF6055013522
S31508000508094801F063FBBD4207D28642EFD8B042DC
S3150800051894BF28464FF0FF30F8BDB04294BF6FF03D
S3150800052801004FF0FF30F8BD7801002038000020A0
S315080005382DE9F04708AE96E8C00191461D460446DF
S315080005488A463B4607EB0802934203D0002103F884
S31508000558011BF9E72368012B2AD020464B49FFF7E8
S31508000568DBFE4B48642101F03FFB20464949FFF76B
S31508000578D3FE20465146FFF7CFFE20464649FFF7E9
S31508000588CBFE20464946FFF7D3FE20464349FFF7E8
S31508000598C3FE20464249072240F2DC53FFF7E0FE35
S315080005A820B920606FF00200BDE8F08701232360B8
S315080005B820463C49FFF7B0FE20463146FFF7B8FE0D
S315080005C820463649FFF7A8FE2046374901224FF448
S315080005D87A73FFF7C5FE814608B12E440DE020461A
S315080005E82A49FFF799FE2A48642101F0FDFAC4F85A
S315080005F800906FF00300BDE8F087B54205D02B4898
S3150800060815F8011B00F0EAFCF7E7204628490722F7
S315080006184FF47A73FFF7A4FE054620465DB91B49D1
S31508000628FFF77AFE1A48642101F0DEFA25606FF0B2
S315080006380400BDE8F0871F4905224FF47A73FFF7CF
S315080006488FFE054660B920461049FFF765FE104833
S31508000658642101F0C9FA25606FF00500BDE8F08746
S315080006680025124800F0E2FCC0B23A2805D00A2351
S3150800067803FB0500A0F13005F3E720463946424654
S315080006881423FFF719FF2846BDE8F0870E3000083F
S31508000698780100201C30000830300008F72F0008C1
S315080006A8333000083B30000847300008380000207F
S315080006B84930000851300008F0B5054699B0114888
S315080006C80F461C46164600F087F90F4B0590069309
S315080006D807970021A14205D005AB0B44725C1A7333
S315080006E80131F7E700244C238DE8180002942846C0
S315080006F8064940F2DA7205ABFFF71AFF204619B029
S31508000708F0BD00BF380000205723FECA573000083E
S315080007181FB50446134801F059FA4FF47A73B0FB2B
S31508000728F3F0114B019002931048114B03934FF4C1
S31508000738004100F089FB01AA204600210C23FFF797
S31508000748BBFF01AA0C2320460021FFF7B5FF07487F
S315080007584FF4004100F086FB0248642101F044FA90
S31508000768D8E700BF78010020FECAFECA3800002074
S315080007782FCB0400F0EE007A70EE200A91EE670A95
S315080007880023036070EE810A43608360C0ED030AA4
S3150800079880ED040A80ED051A8361C0ED071A7047D3
S315080007A810B50446FFF7E6FF204610BDD0ED007ADF
S315080007B8D0ED046A90ED017AC0ED017A67EEA67A63
S315080007C8D0ED036A80ED027AE6EE807AD0ED056A06
S315080007D880ED000AE6EE877A90ED067A77EE877A54
S315080007E890ED077AC0ED067AF4EEC77AF1EE10FABC
S315080007F8C8BF80ED067AD0ED067AB1EE477AF4EEF0
S31508000808C77AF1EE10FA48BF80ED067A90ED060A27
S31508000818704700228260C26002614261426000221B
S31508000828027070472DE9F843002301F116082DEDEB
S31508000838028B0D460446037041461A4603F10C001E
S3150800084831F9026F35F910008642B8BF13460132EE
S31508000858042AF3D10C33DFED3B7A35F9133007EE6A
S31508000868103AB8EEC77AB0EE678AB4EEE77AF1EED0
S3150800087810FA63D504F10806DFED338A04F118097E
S31508000888374638F9023F31485B4200EE103AB8EE6F
S31508000898C00AA7EC010A00F062F8F4EEC08AF1EE85
S315080008A810FA06D5294817ED010A00F058F8F0EEAF
S315080008B8408A4F45E5D1D6ED007AC7EEA87AE6EC28
S315080008C8017A4E45F7D101232370B5F91830DFEDC3
S315080008D81D7A07EE103AB8EEC77AB4EEC87AF1EE82
S315080008E810FA01D51A4B28E0B5F91E3007EE103A6A
S315080008F8B8EEC77AB4EEE77AF1EE10FA02D54FF0F9
S315080009087E531AE0B5F91A3007EE103AB8EEC77AE8
S31508000918B4EEE77AF1EE10FA02D54FF03F430CE051
S31508000928B5F91C3007EE103AB8EEC77AB4EEE77A8E
S31508000938F1EE10FA02D54FF07C536360BDEC028BDA
S31508000948BDE8F8830000A0C217B7D1381001002007
S31508000958000080BF0078704790ED010A7047B5EE31
S31508000968C00AF1EE10FA48BFB1EE400A7047000017
S3150800097803680B4943F2390201FB03224168026006
S3150800098841F3000323F03F5323F47F1323F47F53E3
S3150800099823F03E0383EA5103436083EA0200704763
S315080009A86D4EC64108B5FFF7E3FF094BB0FBF3F2F6
S315080009B802FB130007EE900A9FED060AF8EEE77A9F
S315080009C8C7EE807AB7EE000A37EEC00A08BD00BF40
S315080009D880841E0000247449064B074A18680433A5
S315080009E81B68034403EB00431068184400EB0340F4
S315080009F8704700BFACF7FF1FB4F7FF1F10B5074CC9
S31508000A08C02120460022182300F066F92046C22194
S31508000A1800221823BDE8104000F05EB9180100202E
S31508000A2870B590E830002C2C74DC14F12C0F11DB0F
S31508000A382C2D5EDC15F12C0F33DBDCB101E06FF0F1
S31508000A482B05002C0DDD062CB8BF0624A40044F09F
S31508000A5802040DE02C2D6FF02B0460DCA542B8BF0C
S31508000A6825466442062CB8BF0624A40044F00104AF
S31508000A78E4B200E01B24002213462A48C02100F0ED
S31508000A882BF92848C0210022234600F025F9002D15
S31508000A9820D016DD062DB8BF0625AD0045F00105A0
S31508000AA816E0002CCBD11F48C0212246234600F069
S31508000AB813F91C48C02122461B2300F00DF96FF0D4
S31508000AC82B056D42062DB8BF0625AD0045F0020573
S31508000AD8EDB200E01B25002213461248C22100F099
S31508000AE8FBF82B460F48C2210022BDE8704000F0EB
S31508000AF8F3B86CB90B48C0212246234600F0ECF837
S31508000B080848C02122461B2300F0E6F82C25C4E72E
S31508000B182C2596E72C24A5428CDD254696E72C2518
S31508000B289FE700BF18010020012998BF40F8212037
S31508000B38FFF776BF10B5002104460A46FFF7F4FF0B
S31508000B48204601210022FFF7EFFF2046FFF768FF3E
S31508000B58002010BD0B23013B01D000BFFBE77047FF
S31508000B6873B50C4C01230322064680258DF80430FC
S31508000B788DF806302046002369468DF805208DF83D
S31508000B880730009502F0EAF825853046FFF7E2FFB8
S31508000B9802B070BD00040048054B1A6822F44042AA
S31508000BA81A601A681A6080229A61FFF7D3BF00BFD5
S31508000BB800040048024B40221A85FFF7CBBF00BF46
S31508000BC800040048024B40229A61FFF7C3BF00BFE2
S31508000BD80004004813B5044601214FF4802001F0AB
S31508000BE821FFC02300930123032269468DF80430A8
S31508000BF88DF8063009488DF8052000238DF807304A
S31508000C0802F0ACF82046FFF7DDFF2046FFF7A8FFFD
S31508000C182046FFF7C1FF02B010BD00BF0004004818
S31508000C2810B50446FFF7CEFF2046FFF7B5FF204666
S31508000C38FFF7C8FF2046FFF793FF2046FFF7BAFFDE
S31508000C482046BDE81040FFF7A7BF10B50446FFF7D2
S31508000C58B1FF2046FFF784FF2046FFF7B3FF20467B
S31508000C68FFF77EFF2046FFF7ADFF2046BDE8104098
S31508000C78FFF792BF70B504460E4608252046FFF7CB
S31508000C8899FF3306204602D5FFF786FF01E0FFF7EE
S31508000C9867FF2046013DFFF795FF760015F0FF052B
S31508000CA8F6B2EBD12046FFF785FF2046FFF774FF1B
S31508000CB82046FFF787FF074B1D8A2046FFF77AFF6E
S31508000CC8ADB22046FFF746FF85F08000C0F3C01096
S31508000CD870BD00BF00040048F8B504460F4616461E
S31508000CE81D46FFF79DFF39462046FFF7C3FF3146E5
S31508000CF82046FFF7BFFF20462946FFF7BBFF2046D9
S31508000D08BDE8F840FFF7A1BFF8B505460F46FFF757
S31508000D1851FF082600242846FFF754FF104B1B8A64
S31508000D2864001B06E4B2284606F1FF3648BF44F0BD
S31508000D380104FFF73FFF16F0FF06ECD1284617B166
S31508000D48FFF70EFF01E0FFF727FF2846FFF73AFFF0
S31508000D582846FFF72FFF2846FFF71EFF2046F8BD4F
S31508000D680004004870B504460D461646FFF758FFB6
S31508000D7829462046FFF77EFF31462046FFF77AFFC9
S31508000D882046FFF74DFF45F001012046FFF772FFA1
S31508000D9800212046FFF7B8FF05462046FFF755FF0E
S31508000DA8284670BD2DE9F3414FF40030012101F0C2
S31508000DB839FE224F4FF48020012101F033FE4FF40B
S31508000DC80020012101F02EFE00244FF400430325DC
S31508000DD84FF0010838466946009308268DF80480BE
S31508000DE88DF806408DF805508DF8074001F0B6FFD6
S31508000DF869464FF0904000968DF804808DF80640B5
S31508000E088DF805508DF8074001F0A8FF4FF40073D8
S31508000E183846694600938DF804408DF805508DF8D4
S31508000E28074001F09BFF4FF0904320461E85044B70
S31508000E381C60044B1C6002B0BDE8F0810004004841
S31508000E481C01002020010020082905D0B1F5004F13
S31508000E5805D1034B996170474FF090431985704740
S31508000E6800040048082905D0B1F5004F05D1034B01
S31508000E78198570474FF090439961704700040048F8
S31508000E88024B188A80B221EA00007047000400481D
S31508000E98034A136806200133136001F053BF00BFE5
S31508000EA81C010020034A13680C200133136001F063
S31508000EB849BF00BF20010020054A00231360054AE0
S31508000EC81360054A0021D1540133102BF9D1704714
S31508000ED824010020380100202801002070B58AB0B6
S31508000EE8FFF7EAFF4FF40030012101F09BFD4FF4AC
S31508000EF88040012101F0A4FD4FF4C0630293022348
S31508000F0800248DF80C3002A903234FF090408DF881
S31508000F180D308DF80E408DF80F4001F01FFF4FF089
S31508000F2890400921072201F05FFF184D07224FF06C
S31508000F3890400A2101F058FF4FF4E13304932846FC
S31508000F480C2304A90893059406940794099401F0B8
S31508000F5893FD2846012101F0F1FD012228460C4996
S31508000F6801F0FCFD0126252301A88DF804308DF82B
S31508000F7805408DF806408DF8076001F0F3FA284613
S31508000F88314601F0DBFD20460AB070BD0038014045
S31508000F980501050008B50D480D4901F0F9FD78B1B8
S31508000FA80A4801F0D6FD0B4B0B491A68C0B288549B
S31508000FB81A6801321A601A680F2A84BF00221A6052
S31508000FC802480349BDE8084001F000BE0038014060
S31508000FD8050105002401002028010020044BDA69D0
S31508000FE8120601D400BFF9E789B21985704700BF10
S31508000FF8003801400A4B0B4A1968126891420CD00E
S315080010081A680949885C1A6801321A601A680F2A28
S31508001018C0B204D900221A6070474FF6FF707047AD
S3150800102838010020240100202801002010B50446B4
S315080010382046FFF7DFFF4FF6FF73984201D100BF3E
S31508001048F6E710BD38B505464C1E14F8011F19B148
S315080010582846FFF7C3FFF8E7012038BD7FB50B1E02
S315080010684FF00002BABF5B42012515468DF80F20DE
S315080010780A210A2201AC93FBF2F602FB1633303337
S315080010880B554A1E33460EB11146F2E72DB104AB8D
S3150800109813442D2103F80C1C11462144FFF7D2FFEF
S315080010A804B070BD30B585B000238DF80F300A221C
S315080010B80A2301ACB1FBF3F503FB151330331355BB
S315080010C82946531E0DB11A46F2E7A118FFF7BAFFCB
S315080010D805B030BD1FB500238DF80F300A2201F080
S315080010E80F03092B01ACD4BF303357330909A3546E
S315080010F802F1FF3301D01A46F1E7A118FFF7A2FF5C
S3150800110804B010BD38B50022054601238A4203D02B
S315080011180A2043430132F9E7BDEEC07A2846F8EEBD
S31508001128C77A17EE101A30EE670A07EE903AF8EE05
S31508001138677A20EE270AFDEEC07A17EE904AFFF77F
S315080011488DFF28462E21FFF749FF84EAE4712846D1
S31508001158A1EBE471BDE83840FFF780BF0EB477B558
S3150800116807AB044653F8046B01930025715D002903
S3150800117854D0252904D02046FFF730FF0135F5E776
S3150800118873195978692916D007D863292BD066297F
S3150800119831D0252940D120462AE0752913D0782947
S315080011A819D0732938D1019B20461A1D196801924E
S315080011B8FFF748FF30E0019B20461A1D196801927F
S315080011C8FFF74CFF28E0019B20461A1D1968019273
S315080011D8FFF768FF20E0019B20461A1D196801924F
S315080011E8FFF778FF18E0019B1A1D19780192204627
S315080011F8FFF7F4FE10E0019B073323F0070303F11A
S315080012080802D3E90001019201F05AFE032100EE13
S31508001218100A2046FFF776FF0235A7E703B0BDE8B0
S31508001228704003B070476523013B01D000BFFBE758
S31508001238704737B5012303220546F0248DF8043094
S315080012488DF80630694600234FF090408DF8052042
S315080012588DF80730009401F081FD4FF09043284639
S315080012681C85FFF7E0FF03B030BD37B5002303221E
S315080012780546F02469464FF090408DF804308DF8FD
S3150800128805208DF80730009401F068FD4FF090436B
S3150800129828469C61FFF7C7FF03B030BD024B4FF4E1
S315080012A800521A85FFF7BFBF00080048024B4FF4E3
S315080012B800529A61FFF7B7BF00080048F7B54FF420
S315080012C800530546002400930327012317488DF881
S315080012D804306946F0268DF805708DF806408DF8B5
S315080012E8074001F03BFD4FF09040694600968DF89F
S315080012F804408DF805708DF8074001F02FFD31463A
S315080013084FF0904001F06CFD2846FFF7CFFF2846BE
S31508001318FFF78FFF2846FFF7A8FF42F21173013B34
S3150800132801D000BFFBE703B0F0BD00BF00080048C6
S3150800133810B50446FFF7BAFF2046FFF796FF204682
S31508001348FFF7B4FF2046FFF774FF2046FFF7A6FF0E
S315080013582046BDE81040FFF788BF10B50446FFF7DA
S315080013689DFF2046FFF765FF2046FFF79FFF2046AB
S31508001378FFF75FFF2046FFF799FF2046BDE81040B4
S31508001388FFF773BF70B504460E4608252046FFF7D3
S3150800139885FF3306204602D5FFF767FF01E0FFF70A
S315080013A848FF2046013DFFF781FF760015F0FF0547
S315080013B8F6B2EBD12046FFF771FF2046FFF755FF37
S315080013C82046FFF773FF2046FFF768FF2046BDE86B
S315080013D87040FFF728BFF8B504460F4616461D465F
S315080013E8FFF7A6FF20463946FFF7CCFF20463146C9
S315080013F8FFF7C8FF20462946FFF7C4FF2046BDE881
S31508001408F840FFF7AABF00232DE9F04105461370F7
S3150800141853709370D3700E461446D71CFFF73EFFD9
S315080014282846FFF722FF4FF00808631E13F8012F16
S315080014385200BB421A70F9D12846FFF737FF4FF01A
S3150800144890431B8A9BB2D80642BF227842F0010213
S315080014582270990642BF627842F0010262705A0603
S3150800146842BFA27842F00102A2701B0642BFE37887
S3150800147843F00103E3702846FFF710FFB8F10108A7
S31508001488D3D116B12846FFF7D4FE2846FFF70EFF34
S315080014982846FFF703FF2846BDE8F041FFF7C3BE15
S315080014A8F8B504460D4617461E46FFF741FF20467F
S315080014B82946FFF767FF39462046FFF763FF2046A8
S315080014C8FFF736FF204645F00101FFF75BFF204688
S315080014D832460021FFF797FF2046BDE8F840FFF798
S315080014E83CBF000010B504460848FFF773FB2046C2
S315080014F800F064FA10B1A0F57A7010BD04F1840002
S3150800150800F04EFC08B1A0F5FA6010BD18010020DD
S315080015187FB5702301930123ADF808300423ADF88D
S315080015280A300223ADF810300023ADF81230ADF8B2
S3150800153816300A4B4FF48072ADF814201B68C8227F
S31508001548B3FBF2F3023B58438009039001A9044808
S3150800155801F0A0F807B05DF804FB00BF30000020D2
S3150800156800400140F0B53A4B3A4F3B4E3B4D0024FC
S315080015781C703B4B3C701C603A4B34608BB01C703B
S315080015884FF40043029302238DF80C3028460323B0
S3150800159802A98DF80D3001F0E1FB284601220F213A
S315080015A801F022FC4FF48030012101F049FA2E4D52
S315080015B82E4BADF81040C822284604A91B68B3FB71
S315080015C8F2F3013B0593ADF81240ADF81840ADF8B3
S315080015D81A4001F001F82846012101F04DF828467D
S315080015E8012101F098F82046FFF792FF042001210F
S315080015F801F034FAA5F59C354FF43473ADF81C3070
S31508001608284640F2E73307A90893ADF81E40ADF817
S315080016182440ADF8264000F0DFFF2846012101F0F6
S315080016282BF8EB6843F00103EB6001A81E238DF83D
S31508001638054001248DF804308DF806408DF80740DA
S3150800164800F090FF64233C7033600BB0F0BD00BF18
S31508001658490100204A0100204401002000040048EE
S31508001668400100203C0100200040014030000020D5
S31508001678024BC9B21970024B1A6070474A0100201A
S31508001688440100203A4A10B5136801331360394BF0
S315080016981978394B042956D8DFE801F026130316BA
S315080016A82800364905200968B1FBF0F110680129B8
S315080016B898BF0221B0FBF1F201FB1202B2EB510FFF
S315080016C812D93F221A703EE02C4912680968C2F3FB
S315080016D883128A4208D2264A10683C22B0FBF2F1E5
S315080016E802FB11021E2AECD80022EBE724490878E7
S315080016F800F0FF0410B1012C12D024E010680F2264
S31508001708B0FBF2F2C2EB021290421CD11A781A48C0
S315080017183E2A02D80278013211E001220A7012E044
S3150800172810680F22B0FBF2F2C2EB021290420AD1FD
S315080017381A78114802F0FF0422B10278013AD2B2A7
S31508001748027000E00C7019780E4B0F481A68C82307
S31508001758B2FBF3F3023B4B433F21B3FBF1F100F035
S31508001768D7FF0A480121BDE8104000F0DFBF00BFD7
S31508001778400100204A0100203C01002044010020C5
S3150800178849010020300000200040014000080040C0
S315080017982DE9F04704468846FFF7CAFD2046722118
S315080017A8FFF7F0FDB4212046FFF7ECFD2046FFF7CA
S315080017B8BFFD20467321FFF7E5FD20460121224695
S315080017C8FFF721FE2378A3836378E383A37823842A
S315080017D8E378638401212046224604F11A09651E26
S315080017E8FFF711FEA61C04F1220729464B4633F8D3
S315080017F8022F11F8010FBB4242EA00221A80F6D1DD
S31508001808204601212246FFF7FEFD2378A380637848
S31508001818E380A3782381E378638101212046224661
S31508001828FFF7F1FD04F10A0A3346294633F8022F71
S3150800183811F8010F534542EA00221A80F6D12046CC
S3150800184801212246FFF7DFFD2378A3816378E38128
S31508001858A3782382E3786382224620460121FFF78C
S31508001868D2FD04F112062A463AF8023F12F8011F79
S31508001878B24543EA0123AAF80030F5D120460121EA
S315080018882246FFF7C0FD2378A3826378E382A3780C
S315080018982383E3786383224620460121FFF7B3FDB5
S315080018A82A4636F8023F12F8011F4E4543EA012335
S315080018B83380F6D1204601212246FFF7A4FD237876
S315080018C8A3846378E384A3782385E378638522462B
S315080018D820460021FFF797FD04F12A0237F8023F50
S315080018E815F8011F974243EA01233B80F6D12046A3
S315080018F8FFF733FDB8F1000F25D00023A188B4F807
S3150800190844200A44A4F84420A189B4F84C200A447F
S31508001918A4F84C20A18AB4F854200A44A4F8542000
S31508001928A18CB4F864200A44A4F86420A18BB4F8FE
S315080019385C2001330A44042BA4F85C2004F1020451
S31508001948DCD1BDE8F087414672B6A388B4F84400EE
S31508001958B4F84C20B4F85450B4F86460181AA3893B
S315080019689A1AA38A5B1BA58CAD1BA584B4F85C6080
S31508001978A58B80B292B29BB2AD1BA080A281A3822E
S31508001988A58362B600B212B285181BB2ED180ED03E
S31508001998C0EB0020C2EB022290FBF5F092FBF5F2B1
S315080019A8C3EB0323A08593FBF5F3A286A38701312E
S315080019B8042904F10204C7D1BDE8F087F7B506463D
S315080019C83546FFF77BFC3346002201320024042AF9
S315080019D89C809C819C829C849C83A3F84440A3F8A1
S315080019E84C40A3F85440A3F86440A3F85C409C858F
S315080019F89C869C8703F10203E7D13046722181222F
S31508001A08FF23FFF7E8FC304672218322FF23FFF7FE
S31508001A18E2FC304672218D222346FFF7DCFC30466D
S31508001A28722180220323FFF7D6FC8F222323304610
S31508001A387221FFF7D0FC01AF30462146FFF7A8FE12
S31508001A483B46304672219222FFF72AFD2346FA5C66
S31508001A58692A1CBF01229A4003F1010318BF1443DF
S31508001A68042BF4D11F4630460121FFF791FE013FAA
S31508001A78F9D10421B5F944309B08A5F84430B5F9DD
S31508001A884C309B08A5F84C30B5F954309B08A5F896
S31508001A985430B5F964309B08A5F86430B5F95C305C
S31508001AA801394FEA9303A5F85C3005F10205E1D13F
S31508001AB83046FFF76DFE14B10248001B00E02046C9
S31508001AC803B0F0BD18FCFFFF043070470023154A21
S31508001AD8D15C11B1D15CFF291ED1134951F82300F5
S31508001AE828B151F82320013A41F8232009E00F4884
S31508001AF850F8230041F82300D25C12B9094A01219B
S31508001B08D1540133082BE2D1094A0A48136801213E
S31508001B180133136000F00ABED15C0131C9B2D15451
S31508001B28DBE700BF6C0100204C0100207C01002087
S31508001B38740100200004004030B51F4A002385B010
S31508001B4813601E494FF4806241F823201C4941F866
S31508001B5823201C4A0024D4540133082BF1D11A4DEA
S31508001B680220012100F07AFF4FF48C73ADF8043097
S31508001B782846312301A90293ADF80640ADF80C4072
S31508001B88ADF80E4000F028FD2846012100F074FD46
S31508001B98EB6843F00103EB601D238DF800306846B7
S31508001BA801238DF801408DF802308DF8033000F0D6
S31508001BB8D9FC204605B030BD740100204C01002030
S31508001BC87C0100206C0100200004004082B072B637
S31508001BD8044B1B68019362B60A230198B0FBF3F01D
S31508001BE802B070477401002037B50C460546FFF762
S31508001BF8EDFF204401902846019CFFF7E7FF844241
S31508001C0802D901F01DF8F6E703B030BD72B60A230B
S31508001C185A43054B43F82120044B43F82120044B2B
S31508001C2800225A5462B670474C0100207C010020F5
S31508001C386C010020054B5A5C02F0FF002AB172B607
S31508001C48585C0022C0B25A5462B670476C0100202C
S31508001C5870B5524C05462046FEF7E2FF2046D421C9
S31508001C68FFF708F8A8212046FFF704F82046FEF7EC
S31508001C78D7FF2046D521FEF7FDFF20460121FFF7AD
S31508001C8843F8012186B22046FFF73EF846EA0020C7
S31508001C9800B2686201212046FFF736F8012186B2AC
S31508001CA82046FFF731F846EA002000B2A86201216B
S31508001CB82046FFF729F8002186B22046FFF724F8C0
S31508001CC846EA002000B2E8622046FEF7BEFF204634
S31508001CD8FEF7A6FF20463C21FEF7CCFFA8212046A2
S31508001CE8FEF7C8FF2046FEF79BFF20463D21FEF774
S31508001CF8C1FF20460121FFF707F8012186B22046D1
S31508001D08FFF702F846EA002000B2286301212046B8
S31508001D18FEF7FAFF012186B22046FEF7F5FF46EAE6
S31508001D28002000B2686301212046FEF7EDFF002176
S31508001D3886B22046FEF7E8FF46EA002000B2A86306
S31508001D482046FEF782FF6A68AB6AA8689B1AEA68A3
S31508001D58C82693FBF6F31A44EB6BEA6055215943F8
S31508001D6840F6E2144A436B6A92FBF4F2AA612A68BF
S31508001D789B1A2A6993FBF6F31A442A614A4392FB8B
S31508001D88F4F2EA61EA6A121A92FBF6F06A698318AB
S31508001D986B614B4393FBF4F32B6270BD180100206B
S31508001DA80A232DE9F041C363002304460360436010
S31508001DB88360C3600361436142F21175013D01D036
S31508001DC800BFFBE73248D4210F22FEF7CBFFD42801
S31508001DD8064655D12E483C210F22FEF7C3FF49284F
S31508001DE852D131462A482022FF23FEF775FF31468D
S31508001DF82748284E23221023FEF76EFF24483C2145
S31508001E081F222B46FEF768FF21483C21202267231C
S31508001E18FEF762FF1E483C2121222B46FEF75CFF8F
S31508001E28013E01D000BFFBE72046FFF711FF6425F6
S31508001E383746B0466523013B01D000BFFBE720467D
S31508001E48FFF706FF636A9844A36A1F44E36A013DDD
S31508001E581E44EFD16422256398FBF2F397FBF2F749
S31508001E6896FBF2F623606760A6606563A5636562FC
S31508001E78A562E562A561E56125622846BDE8F081A7
S31508001E884FF0FF30BDE8F0816FF00100BDE8F08142
S31508001E9818010020A1860100183070477047000015
S31508001EA808B54FF400410A48FEF7CEFF0948FFF780
S31508001EB88DFE094902460648FFF750F905480A21E2
S31508001EC8FFF792FE02484FF40041FEF7CBFFE8E71A
S31508001ED838000020780100206030000807B56846F9
S31508001EE8FEF718FA00216846FEF7CCFA6846FEF7A8
S31508001EF80FFC6846FEF70FFA03B05DF804FB00000E
S31508001F0870B51C4C1C4D20464FF4617116220023EF
S31508001F18FEF7AAF920464FF4617116220023FEF748
S31508001F28A3F920464FF4617116220023FEF79CF99F
S31508001F3820464FF4617116220023FEF795F92046CC
S31508001F48294616220023FEF78FF920462946162227
S31508001F580023FEF789F92046294616220023FEF7AC
S31508001F6883F92046294616220023BDE87040FEF765
S31508001F787BB900BF380000207CFCFFFF10B58EB087
S31508001F886846FEF746FC06A8B2EE040ADFED380AEC
S31508001F98DFED381AB2EE001AFEF702FC36480021C1
S31508001FA80A22FFF733FE34480021FFF743FE0028CC
S31508001FB8F9D000213148FFF7EBFB3048FFF784FDDD
S31508001FC801466846FEF72EFC6846FEF7C3FC04463B
S31508001FD86846FEF7C1FCDFED2A7A2848294920EE2B
S31508001FE8270A2246FDEEC07A17EE903AFFF7B6F8AA
S31508001FF86846FEF7AFFC0446D0B16846FEF7ACFC67
S31508002008DFED1B7A06A837EEC00AFEF7CFFBFDEE12
S31508002018C07A1D4817EE904A002104F10B02FEF714
S3150800202883FD19480121C4F10B02FEF77DFDBAE7C5
S31508002038214615486FF00A02FEF776FD6FF00A0288
S3150800204811480121FEF770FD0B484FF49671FFF70A
S31508002058CBFD214622460C48FEF766FD0A480121B3
S315080020682246FEF761FD04486421FFF7BDFD9AE79D
S3150800207800000000000030427801002038000020E7
S3150800208800007A4475300008FC000020013908B5BC
S31508002098032912D8DFE801F002060A0CFFF730FF19
S315080020A8FFF7FEFEBDE80840FFF718BFFFF766FF13
S315080020B80248BDE8084000F051B808BD6002002093
S315080020C80023036043608360C360704700F10C0314
S315080020D8F1EC017AD0ED006AB7EE007A37EE407A6D
S315080020E860EE277AE7EE267AE0EC017A9842EFD195
S315080020F870470000F8B5DFED176A03460026D0F8E2
S31508002108C0011C463546854219D0DFED137A8E463E
S3150800211804F11007B4EC016ABEEC017A37EE467A88
S31508002128BC42E7EE077AF5D1F4EEE67AF1EE10FA54
S3150800213844BF2E46F0EE676A01353C46E3E703F5E9
S3150800214880730C21104601FB0631B7EE000AFFF72B
S31508002158BDFFF8BD20BCBE4C000000002DE9F84FB5
S3150800216808232DED068B00F15006C0F81032CB4B2C
S31508002178C0F81432044600F5A878354605F1100764
S31508002188C748FEF70FFCA5EC010ABD42F8D145453C
S31508002198F4D1234604F1C002DFEDC28A0C33C3ED3D
S315080021A8518AC3ED528AC3ED538A9342F4D1002368
S315080021B804F13005A362E362284604F14009FFF7F3
S315080021C87FFF4846FFF77CFFBFEE00AAC4ED868A64
S315080021D8C4ED878AC4ED888A0021B348FFF7D8FA80
S315080021E8B148FFF771FC01462046FEF71BFB20465F
S315080021F8FEF7B2FB236A6362E3692362A369E361B4
S3150800220884ED060A95E80F0004F1400787E80F00F1
S3150800221804F118030FCB04F5067785E80F003A464C
S3150800222830462946FFF766FFE36AA3629C48FEF72D
S315080022389FFB6423B0FBF3F202FB130013280BD8A9
S315080022489748FEF795FB4FF0030AB0FBFAFA0AEB34
S315080022584A0ACAEB000A12E04FF0000A3A46534601
S3150800226804EB8A01B2EC017AD1ED867AB4EE677A84
S31508002278F1EE10FAC8BF9A460133032BF0D1BAF12A
S31508002288010FC4F82CA014D00BD3BAF1020F1AD137
S31508002298864800210E22FEF747FC844801210022C1
S315080022A80FE0824800210E22FEF73EFC7F480121F6
S315080022B806E000217D480A46FEF736FC7B4851466B
S315080022C80E22FEF731FC7A483221FFF78DFC0021F1
S315080022D87548FFF75DFA7448FFF7F6FB014620468E
S315080022E8FEF7A0FA2046FEF737FB6D48FEF737FBE0
S315080022F8F7EE009AD4F82CB0D4F828A039EEC00A1C
S31508002308F6EE007A304629463A4604EB8B0B30EE51
S31508002318679AFFF7EFFED4ED867A9BED868AB4EEC8
S31508002328678AF1EE10FA48BFB0EE678AD4ED877A65
S31508002338B4EE678AF1EE10FA48BFB0EE678AD4EDB4
S31508002348887AB4EE678AF1EE10FA304649463A4674
S3150800235848BFB0EE678AFFF7CDFEDFED567AD4F8A8
S315080023681002DFED556AB0EE497AA8EE277A04EB33
S315080023788A0A0021B6468AED867A0A46824204F116
S31508002388400318D0DFED477AF446B3EC017ABCEC83
S31508002398016A37EE467AB342E7EE077AF5D1F4EEE4
S315080023A8E67AF1EE10FA44BF1146F0EE676A013292
S315080023B80EF1100EE2E70F281AD8421D04EB021296
S315080023C8F3EC017A92ED007AE7EE287AB342E2EC6A
S315080023D8017AF5D10C2303FB00803946B7EE000ACB
S315080023E8FFF774FED4F810320133C4F810321AE035
S315080023F84A1DD4ED856A04EB0212F3EC017A92EDD4
S31508002408006A39EEE67A66EEA77AB342E7EE067A06
S31508002418E2EC017AF1D10C2000FB018094ED850AE3
S315080024283946FFF753FE2046FEF794FA0746F0B9F1
S315080024381E4839466FF00D02FEF776FB6FF00D025F
S315080024481A480121FEF770FB19484FF49671FFF7F1
S31508002458CBFB164839463A46FEF766FB1348012170
S315080024683A46FEF761FB12486421FFF7BDFB9FED6C
S31508002478130ADFED137A0C48124929EE009AAAEED8
S31508002488279ADFED117A69EE277AB0EE49AAFDEEAA
S31508002498E77A17EE902AFEF761FE9DE6CDCCCC3D8D
S315080024A8100100200000000038000020FC00002071
S315080024B8780100206666663F20BCBE4C0AD7233CD6
S315080024C8A4707D3F7830000800007A4408B500F00B
S315080024D8B9FB1F48FDF786FE0A211D48FDF7C1FE10
S315080024E81B48FDF7A1FE1B48FFF73CF819480221CF
S315080024F84FF41672FFF7BCF815484FF40071FEF74B
S31508002508BFFC48B11248FDF79AFE1348FFF7C6FC08
S3150800251811480221FFF7BAFD0D484FF40041FEF7AE
S3150800252893FC0E480A21FFF75FFB09484FF4004160
S31508002538FEF798FC4FF496710848FFF755FB0748CD
S31508002548FFF744FB064902460148FEF707FED3E7AC
S315080025583800002048010020A0010020780100204A
S315080025687D30000810B500BF00BF00BFC2780378E9
S3150800257812B3174AD1684278C943C1F30221C1F197
S315080025880404E4B2A240D4B20F220A4181780A4070
S31508002598224303F1604303F561431201D2B283F87B
S315080025A8002303780122590903F01F0302FA03F3EB
S315080025B8084A42F8213010BD5A09012103F01F03C1
S315080025C8994002F12003034A42F8231010BD00BFC0
S315080025D800ED00E000E100E000BF00BF00BF244AAC
S315080025E8038890429BB212D002F5006290420ED040
S315080025F8B0F1804F0BD0A2F59832904207D002F579
S315080026088062904203D002F5A432904203D14A88E8
S3150800261823F070031343174A904208D002F58062E4
S3150800262890421FBF23F440730A899BB21343038061
S315080026384B68C3620B8803850D4B984213D003F584
S31508002648006398420FD003F5406398420BD003F510
S315080026588063984207D003F58063984203D003F550
S315080026680063984201D14B89038601234361704769
S31508002678002C01400010004000BF00BF038819B1B4
S315080026889BB243F0010303E023F001031B041B0C70
S315080026980380704770B500BF00BF00BF00BF036A5C
S315080026A80D688E8923F010030362036A44688269F9
S315080026B822F0807222F4E64242EA052523F0200237
S315080026C88B88334342EA0313104A904203D002F533
S315080026D80062904214D100BF00BF00BF00BFCA897C
S315080026E80E8A23F0800343EA0213CA8823F04003BC
S315080026F843EA02134A8A24F44064324344EA8204C9
S315080027088A68446085618263036270BD002C014053
S3150800271800BF8163704700BF00BF436C11B143F423
S31508002728004301E0C3F30E034364704700BFC9437F
S3150800273889B20161704700002DE9F0419B4F7B681B
S3150800274803F00C03042B05D0082B06D0984A026020
S31508002758B3B916E0964B036012E07B687968C3F351
S3150800276883439A1CCB0349BFFB6A924B904903F0F3
S315080027780F0344BF0133B1FBF3F35343036000E08F
S3150800278800237A688C4EDFF834C2C2F30312B45CAD
S315080027980268E4B222FA04F141607D68C5F30225AD
S315080027A8755D21FA05FEC0F808E07D68C5F3C225FF
S315080027B8755DEDB2E940C160FE6AC6F3041808F013
S315080027C80F0618F0100F3CF81660E046B6B204D0AB
S315080027D81EB1B3FBF6F6066100E00261FE6AC6F3AF
S315080027E8442C0CF00F061CF0100F38F81660B6B219
S315080027F804D01EB1B3FBF6F6466100E042613E6BB3
S31508002808F6065ABF6A4E866182613E6BB6065ABF9D
S31508002818674EC661C2613E6B76065ABF644E06624B
S3150800282802623E6BF60506D59A4204D1A54202D144
S315080028385600466200E041623E6BF60406D59A42A7
S3150800284804D1A54202D15600866200E081623E6B39
S31508002858B60506D59A4204D1A54202D15600C662E3
S3150800286800E0C1623E6B760506D59A4204D1A542B8
S3150800287802D15600C66400E0C1643E6B360506D52B
S315080028889A4204D1A54202D15600066500E00165C0
S315080028983E6BB60406D59A4204D1A54202D1560023
S315080028A8466500E001653E6B360406D59A4204D1B2
S315080028B8A54202D15300836500E081653C6B3B4B1A
S315080028C8A40701D1816315E0196B01F003010129F9
S315080028D801D182630EE0196B01F00301022902D1C6
S315080028E84FF4004305E01B6B03F00303032B01D1E8
S315080028F82F4B8363396B2D4B11F4403F02D1C0F837
S315080029083CE018E0196B01F44031B1F5803F01D17C
S31508002918C26310E0196B01F44031B1F5003F02D1EA
S315080029284FF4004306E01B6B03F44033B3F5403F0E
S3150800293801D11F4BC363396B1C4B11F4402F02D1CD
S31508002948C0F840E018E0196B01F44021B1F5802F72
S3150800295801D1026410E0196B01F44021B1F5002F8A
S3150800296802D14FF4004306E01B6B03F44023B3F58A
S31508002978402F01D10E4B0364396B0C4B11F4401FE1
S3150800298802D1C0F844E023E0196B01F44011B1F50F
S31508002998801F01D142641BE0196B01F44011B1F59F
S315080029A8001F0DD14FF4004311E000BF001002408C
S315080029B800127A0000093D002000002000000020CF
S315080029C81B6B03F44013B3F5401F01D1134B436443
S315080029D8396B134B11F4400F03D1C0F848E0BDE832
S315080029E8F081196B01F44001B1F5800F02D18264B8
S315080029F8BDE8F0811A6B02F44002B2F5000F02D165
S31508002A084FF4004306E01B6B03F44003B3F5400F8D
S31508002A1801D1024B8364BDE8F08100BF00127A0039
S31508002A280010024000BF00BF044B5A6909B11043A1
S31508002A3801E022EA00005861704700BF0010024012
S31508002A4800BF00BF044B9A6909B1104301E022EAA6
S31508002A5800009861704700BF0010024000BF00BF21
S31508002A68044BDA6909B1104301E022EA0000D8618B
S31508002A78704700BF0010024030B5044699B00D46AD
S31508002A8800BF00BF00BF00BF00BF00BF00BF03688C
S31508002A9823F001030360436823F440528B68C9682E
S31508002AA8134343606A68036811432A6923F4B053D9
S31508002AB80A4323F00C0313430360836823F4407224
S31508002AC86B691343836001A8FFF736FE174B9C42D0
S31508002AD801D10F9B0EE0164B9C4201D1109B09E0D1
S31508002AE8144B9C4201D1119B04E0134B9C420CBF2A
S31508002AF8129B139B2268296812F4004F18BF5B00C3
S31508002B08B3FBF1F201FB1233B3EB510F236828BF6D
S31508002B1801321B0441BF4FF6F073C2F3420113405A
S31508002B2841EA030292B2A28119B030BD00380140C9
S31508002B380044004000480040004C004000BF00BF69
S31508002B48036811B143F0010301E023F001030360B0
S31508002B58704700BF808CC0F30800704710B500BFE7
S31508002B6800BF00BFC1F307240123C9B2022C03FA28
S31508002B7801F301D1043002E0032C08BF083012B172
S31508002B880268134302E0026822EA0303036010BDE1
S31508002B9810B500BF00BFC1F30722CCB20123012A32
S31508002BA803FA04F301D1026803E0022A0CBF42685B
S31508002BB882681340C2693BB1090C01238B40134252
S31508002BC814BF0120002010BD184610BD00BF00BF65
S31508002BD80123090C8B4003627047684620F00701F9
S31508002BE88D4601B500BFBDE801408546704700BF60
S31508002BF8FDE700000E490F4B5B1A9B1000229A420C
S31508002C0806D00D4850F8220041F822000132F6E7AE
S31508002C180A4AD2F8883043F47003C2F8883002F5B5
S31508002C280C72536823F040435360FFF74FBC00BF4C
S31508002C3800000020340000208C30000800ED00E079
S31508002C4800BF704700F000B8394AD2F8883043F414
S31508002C587003C2F88830374B1A6842F001021A60C6
S31508002C685968354A0A405A601A6822F0847222F46A
S31508002C7880321A601A6822F480221A605A6822F486
S31508002C88FE025A60DA6A22F00F02DA62196B2B4AD8
S31508002C9882B00A401A6300229A60009201921A6862
S31508002CA842F480321A601A6802F400320192009AD5
S31508002CB801320092019A1AB9009AB2F5A04FF2D1D8
S31508002CC81A6812F4003218BF01220192019A012AE1
S31508002CD805D0174B4FF000629A6002B07047184A41
S31508002CE8122111605A685A605A685A605A6842F43A
S31508002CF880625A605A6822F47C125A605A6842F40A
S31508002D08E8125A601A6842F080721A601968094A05
S31508002D188901FBD5516821F003015160516841F0DA
S31508002D28020151605A6802F00C02082AFAD1D0E763
S31508002D3800ED00E0001002400CC07FF8CCFC00FF54
S31508002D480020024020F01F01012300F01F00024A5C
S31508002D5883408B50704700BF14040140F0B500BF8C
S31508002D6800BF00BF00BF00230E681C460125A5400A
S31508002D7805EA060EAE452DD10F797A1E012A17D80F
S31508002D8800BF032285689A4025EA020282604D79C7
S31508002D9882689D401543856000BF828892B222EA00
S31508002DA80E0282808A798588A2402A4392B2828056
S31508002DB8032205689A40D2431540056005689F4076
S31508002DC82F430760C7681740CA7902FA03F547EA26
S31508002DD80502C2600134102C03F10203C6D1F0BD06
S31508002DE800BF00BF8161704710B500BF00BF00BFB4
S31508002DF801F00703C90800EB81009B00046A0F214C
S31508002E08994024EA01010162016A9A400A4302626A
S31508002E1810BD000070B500221146154B0C2000FBAA
S31508002E2801F41E19756815F0020F1D460AD1766851
S31508002E38F60707D550431C5B185AA4B280B28442D9
S31508002E4838BF0A460C2048431C5AA4B21CB11C5A5F
S31508002E58013CA4B21C5201310629DED10C23534386
S31508002E68E918498889B2E952024B1A6070BD00BF51
S31508002E7884040020CC0400202DE9F00FEFF3088322
S31508002E880D4C0E4D226801321DBF22680C2101FB2C
S31508002E980252002314BF93602360FFF7BBFF226822
S31508002EA80C2303FB02539A686FF006039E4682F3C7
S31508002EB80888BDE8F00F7047CC0400208404002079
S31508002EC84FEA4102B2F1E04324BFB3F5001CDCF136
S31508002ED8FE5C0DD901F0004C4FEAC0024CEA50706E
S31508002EE8B2F1004F40EB830008BF20F0010070479D
S31508002EF811F0804F21D113F13872BCBF01F00040A0
S31508002F08704741F480114FEA5252C2F11802C2F1D1
S31508002F18200C10FA0CF320FA02F018BF40F0010052
S31508002F284FEAC1234FEAD32303FA0CFC40EA0C0004
S31508002F3823FA02F34FEA4303CCE77FEA625307D141
S31508002F4850EA01331EBF4FF0FE4040F44000704778
S31508002F5801F0004040F0FE4040F40000704700BF12
S31508002F68F8B500BFF8BC08BC9E467047F8B500BF60
S31508002F78F8BC08BC9E4670476B6F64616D61206932
S31508002F886E6974202569202569203A2000205B4F40
S31508002F984B5D0A00205B4641494C45445D0A0A00D8
S31508002FA841542B4349504D55583D310D0A0041545B
S31508002FB82B4349504D55583D300D0A0041542B4373
S31508002FC8574D4F44453D310D0A0041542B43574A46
S31508002FD841503D22004E4554474541523833006D0D
S31508002FE8656C6F64696368696C6C35343600220DE4
S31508002FF80A0041542B4349505345525645523D31D0
S315080030082C38300D0A0041542B434950434C4F5332
S31508003018450D0A0041542B43495053544152543DD7
S3150800302822544350222C2200222C00434F4E4E4550
S3150800303843540041542B43495053454E443D003EA2
S315080030480053454E44204F4B002B4950442C003121
S31508003058302E302E302E320073797374656D2074D5
S31508003068696D65202575205B6D735D0A00256920E5
S315080030782569200A0069646C652025750A00000020
S309080030880000000036
S3150800308C010002000400060008000A000C001000EB
S3150800309C2000400080000001000000000000000035
S315080030AC00000000010203040102030406070809D4
S309080030BC00A24A0412
S70508002BFDCA
